:100000000C94E6000C94E90B0C94C20B0C940E01BA
:100010000C940E010C940E010C940E010C940E0124
:100020000C940E010C940E010C940E010C94100C07
:100030000C940E010C940E010C940E010C940E0104
:100040000C94780B0C940E010C94460B0C94200B22
:100050000C940E010C940E010C940E010C940E01E4
:100060000C945E0D0C940E0100407A10F35A00A01F
:10007000724E18090010A5D4E80000E87648170071
:1000800000E40B54020000CA9A3B000000E1F505B1
:10009000000080969800000040420F000000A086FB
:1000A00001000000102700000000E803000000002D
:1000B0006400000000000A000000000001000000D1
:1000C00000002C76D888DC674F0823DFC1DFAE59EB
:1000D000E1B1B796E5E3E453C63AE651997696E87E
:1000E000E6C28426EB898C9B62ED407C6FFCEFBC02
:1000F0009C9F40F2BAA56FA5F490055A2AF75C932D
:100100006B6CF9676DC11BFCE0E40D47FEF520E662
:10011000B500D0ED902E0300943577050080841E45
:10012000080000204E0A000000C80C333333330FA0
:10013000986E12831141EF8D2114893BE65516CF3D
:10014000FEE6DB18D1844B381BF77C1D901DA4BB49
:10015000E424203284725E228100C9F124ECA1E5FE
:100160003D27000001000800400000010004050DCB
:1001700000000000230026002900000000002400E9
:1001800027002A0000000000250028002B0004049E
:10019000040404040404020202020202030303032F
:1001A000030301020408102040800102040810200B
:1001B00001020408102000000008000201000003F2
:1001C00004070000000000000000790E11241FBE8B
:1001D000CFEFD8E0DEBFCDBF11E0A0E0B1E0EAE7AD
:1001E000F1E302C005900D92AC3DB107D9F724E0D0
:1001F000ACEDB1E001C01D92A632B207E1F710E00C
:10020000C6EED0E004C02197FE010E94BE16C53E96
:10021000D107C9F70E941A0F0C94BB180C94000068
:10022000AF92BF92CF92DF92EF92FF920F931F9304
:10023000CF93DF936C017B018B01040F151FEB0142
:100240005E01AE18BF08C017D10759F06991D601F9
:10025000ED91FC910190F081E02DC6010995892B6B
:1002600079F7C501DF91CF911F910F91FF90EF902A
:10027000DF90CF90BF90AF900895FC01538D448DD7
:10028000252F30E0842F90E0821B930B541710F041
:10029000CF96089501970895FC01918D828D98174E
:1002A00061F0A28DAE0FBF2FB11D5D968C91928D26
:1002B0009F5F9F73928F90E008958FEF9FEF089557
:1002C000FC01918D828D981731F0828DE80FF11D20
:1002D000858D90E008958FEF9FEF0895FC01918D3B
:1002E000228D892F90E0805C9F4F821B91098F7334
:1002F0009927089583E692E00E946E0121E0892B00
:1003000009F420E0822F089580E090E0892B29F005
:100310000E947A0181110C9400000895FC01A48DC3
:10032000A80FB92FB11DA35ABF4F2C91848D90E017
:1003300001968F739927848FA689B7892C93A089FA
:10034000B1898C91837080648C93938D848D981384
:1003500006C00288F389E02D80818F7D8083089517
:10036000EF92FF920F931F93CF93DF93EC0181E005
:10037000888F9B8D8C8D98131AC0E889F9898081AC
:1003800085FF15C09FB7F894EE89FF896083E889DF
:10039000F98980818370806480839FBF81E090E0D1
:1003A000DF91CF911F910F91FF90EF900895F62E5E
:1003B0000B8D10E00F5F1F4F0F731127E02E8C8DF8
:1003C0008E110CC00FB607FCFACFE889F98980813D
:1003D00085FFF5CFCE010E948E01F1CFEB8DEC0FA2
:1003E000FD2FF11DE35AFF4FF0829FB7F8940B8F5A
:1003F000EA89FB8980818062CFCFCF93DF93EC01C4
:10040000888D8823B9F0AA89BB89E889F9898C91FC
:1004100085FD03C0808186FD0DC00FB607FCF7CFB8
:100420008C9185FFF2CF808185FFEDCFCE010E94B8
:100430008E01E9CFDF91CF910895833081F028F4C8
:10044000813099F08230A9F008958730A9F0883082
:10045000C9F08430B1F4809180008F7D03C0809119
:1004600080008F7780938000089584B58F7784BD56
:10047000089584B58F7DFBCF8091B0008F778093F6
:10048000B00008958091B0008F7DF9CF1F93CF9376
:10049000DF93282F30E0F901EA54FE4F8491F901EF
:1004A000EE55FE4FD491F901E257FE4FC491CC2393
:1004B000A9F0162F81110E941D02EC2FF0E0EE0F23
:1004C000FF1FEC57FE4FA591B4918FB7F894EC91B4
:1004D000111108C0D095DE23DC938FBFDF91CF913F
:1004E0001F910895DE2BF8CFCF93DF9390E0FC01AE
:1004F000EE55FE4F249182579E4FFC018491882334
:10050000D1F090E0880F991FFC01E658FE4FA591AD
:10051000B491FC01EC57FE4FC591D49161110EC00E
:100520009FB7F8948C91E22FE0958E238C932881CD
:10053000E223E8839FBFDF91CF9108958FB7F894AE
:10054000EC91E22BEC938FBFF6CF3FB7F8948091FC
:10055000580290915902A0915A02B0915B0226B5BF
:10056000A89B05C02F3F19F00196A11DB11D3FBFEB
:10057000BA2FA92F982F8827BC01CD01620F711DBA
:10058000811D911D42E0660F771F881F991F4A95B4
:10059000D1F708952FB7F8946091540270915502E5
:1005A00080915602909157022FBF089508950895A3
:1005B0008CE30895CF93DF93FC01228133812230B5
:1005C000310569F0EC01678D858D0E94460260E07F
:1005D0008C8D0E94460282E090E09B838A83DF91AB
:1005E000CF91089581E008952FB7F89491E06623A4
:1005F00039F092E0613021F082E08093500290E087
:1006000080914F02892B80934F028091500281117B
:1006100003C081E0809350022FBF08958091500263
:10062000882361F09FB7F8942091500280914E0288
:10063000213019F48DBB9FBF08958FBF0895FC0131
:100640003085218580915002882381F09FB7F894EE
:1006500080915002813069F48DB380934E024DB386
:1006600080914F02809584238DBB9FBF3CBD2DBDE3
:10067000089590934E02FACF9FB7F89480914D025F
:10068000882319F0815080934D0280914D02811191
:1006900005C08CB58F7B8CBD109250029FBF089512
:1006A0008CB58F778CBD08958CB580688CBD08950E
:1006B0006EBD00000DB407FEFDCF8EB50895FC01A0
:1006C000738362830895FC01778366830895FC0138
:1006D00075836483089508950895FC01848995893C
:1006E0000895FC01828993890895FC01808991898C
:1006F000089580E00895FC01738362830895FC01EE
:10070000828193810895FC01868597850895FC0177
:1007100081850895FC0180850895FC0187810895F5
:10072000FC01868108954095FC0125854223642BB8
:1007300065870895FC0164870895FC016387089527
:10074000FC0162870895FC0164830895FC016583C0
:1007500008958F929F92AF92BF92CF92DF92EF92C5
:10076000FF92CF93DF93EC016B010E94CA024B0111
:100770005C01F12CE12C0E94CA02681979098A09EE
:100780009B096C157D058E059F0580F48A819B81F0
:10079000039789F381E0DF91CF91FF90EF90DF9095
:1007A000CF90BF90AF909F908F90089580E0F3CF4F
:1007B000FC012281338123303105D1F381E008959A
:1007C0008F929F92AF92BF92CF92DF92EF92FF9261
:1007D000CF93DF93EC016B010E94CA024B015C01D5
:1007E000F12CE12C0E94CA02681979098A099B0937
:1007F0006C157D058E059F05A0F4E881F9810680C2
:10080000F781E02DCE010995882361F3DF91CF9127
:10081000FF90EF90DF90CF90BF90AF909F908F9020
:10082000089580E0F3CFCF93DF93EC01E881F98165
:100830000680F781E02DCE0109958823B9F3DF9179
:10084000CF910895862720E1829FB0011124862749
:10085000482F50E0292F382FCA0164E095958795DD
:100860006A95E1F728273927CA0173E0880F991F95
:100870007A95E1F78227932708956F927F928F925E
:100880009F92AF92BF92CF92DF92EF92FF920F931F
:100890001F93CF93DF934D3388F0712C872DDF9119
:1008A000CF911F910F91FF90EF90DF90CF90BF906D
:1008B000AF909F908F907F906F900895042F5B0171
:1008C000EC01E881F9810088F189E02D0995E88142
:1008D000F9810688F789E02DCE010995782E8823C5
:1008E000E1F27E0129E7E20EF11C17E0100F612F03
:1008F0008FEF9FEF0E942204E12FF0E064E0F59576
:10090000E7956A95E1F7EA5EFE4F2081F7012083C3
:100910001F70E12FF0E0EA5EFE4F2081FE01E658F5
:10092000FF4F20831A85612F0E942204E12FF0E0FF
:1009300074E0F595E7957A95E1F7EA5EFE4F208140
:10094000FE01E558FF4F20831F70E12FF0E0EA5EC3
:10095000FE4F2081FE01E458FF4F20831B85612F4D
:100960000E942204E12FF0E0A4E0F595E795AA9516
:10097000E1F7EA5EFE4F2081FE01E358FF4F20833E
:100980001F70E12FF0E0EA5EFE4F2081FE01E25889
:10099000FF4F20831C85612F0E942204E12FF0E08D
:1009A000B4E0F595E795BA95E1F7EA5EFE4F208150
:1009B000FE01E158FF4F20831F70E12FF0E0EA5E57
:1009C000FE4F2081FE01E058FF4F20831D85612FDF
:1009D0000E942204E12FF0E024E0F595E7952A95A6
:1009E000E1F7EA5EFE4F2081FE01EF57FF4F2083C3
:1009F0001F70E12FF0E0EA5EFE4F2081FE01EE570E
:100A0000FF4F20836501470110E0A00EB11EF2E008
:100A10008F0E911CCA14DB04E9F0F60161906F019E
:100A2000662D0E942204E62DF0E054E0F595E7954E
:100A30005A95E1F7EA5EFE4F2081F4012087F60126
:100A40003197E081EF70F0E0EA5EFE4F2081F40123
:100A50002187DDCF98012B5F3F4F220F331F8095F9
:100A60009095D701A20FB31FFC0154E0F695E795CE
:100A70005A95E1F7EF70FF27EA5EFE4F30813C9315
:100A8000F801EE0FFF1FBF016E0D7F1DAC014F700F
:100A900055274A5E5E4FFA013081FB0133870A5FBA
:100AA0001F4F000F111F0E0D1F1DFC01EF2FFF2701
:100AB000E295EF70EA5EFE4F3081F8013083E92F56
:100AC000FF27EF70FF27EA5EFE4F808113968C931D
:100AD000FE01E150FF4F245F20838A819B810397B1
:100AE00009F4DCCEE159F109108231961082319679
:100AF00010826F8D81E068278D8D0E94460283E011
:100B000090E09B838A83CACEEF92FF921F93CF938C
:100B1000DF93FC01228133812330310509F452C077
:100B2000EC0182819381049761F0678D858D0E942D
:100B3000460260E08C8D0E94460284E090E09B8338
:100B40008A8388A18823E9F010E08FEF9FEF7E0170
:100B5000FDE6EF0EF11CF7012081121740F4FE01B3
:100B6000E10FF11D61A50E9422041F5FF4CF883BB5
:100B7000904F71F0888999890196998B888B19A279
:100B800018A289A1DF91CF911F91FF90EF90089556
:100B90008AA58E838BA58F838CA588878DA5898751
:100BA0008D81811107C09E818C81981719F08E81EB
:100BB0008F3F31F78A899B8901969B8B8A8B81E0D5
:100BC00089A3DECF80E0DECF20910302260F3327FA
:100BD000331F21323105ECF420912702FC0190E013
:100BE00080E0243069F082E00895A0910302219111
:100BF000AC014D515E4FA40FB52FB11D2C93019642
:100C0000861798F380910302680F6093030280E0D7
:100C1000089581E0089508958FEF9FEF08958FEF75
:100C20009FEF08958091DC0190E091958195910965
:100C30000895CF93DF93CB01EA01642F0E94E4056E
:100C4000CE01DF91CF910895CF93DF931F92CDB75F
:100C5000DEB7698361E0CE0101960E94E40581E080
:100C600090E00F90DF91CF91089590E080E008959B
:100C70000C946017FB0101900020E9F73197AF0158
:100C8000461B570BDC01ED91FC910280F381E02DB6
:100C900009948F929F92AF92BF92EF92FF920F931F
:100CA0001F93CF93DF93CDB7DEB7A1970FB6F8941C
:100CB000DEBF0FBECDBF7C01FA01CB0119A22230ED
:100CC00008F42AE08E010F5D1F4F822E912CB12C6B
:100CD000A12CBF01A50194010E947515F901CA015B
:100CE0006A300CF5605DD8016E938D01232B242BA7
:100CF000252B79F790E080E0109721F0BD01C70126
:100D00000E943A06A1960FB6F894DEBF0FBECDBF83
:100D1000DF91CF911F910F91FF90EF90BF90AF9017
:100D20009F908F900895695CDECF0E94A6182F9245
:100D30003F924F925F926F927F928F929F92AF926B
:100D4000BF92CF92DF92EF92FF921F93CF93DF93E8
:100D5000EC016A017B01722EAB019601CB01B60159
:100D60000E94B9166EE971E0811126C04601570153
:100D7000E894B7F82FEF3FEF4FE75FE7C501B40105
:100D80000E94B91681110CC02FEF3FEF4FE75FE7CC
:100D9000C501B4010E94E81362EA71E0181664F01C
:100DA0002FEF3FEF4FE75FE4C701B6010E94B41693
:100DB0001816B4F466EA71E0CE01DF91CF911F916D
:100DC000FF90EF90DF90CF90BF90AF909F908F906B
:100DD0007F906F905F904F903F902F900C943A06C9
:100DE0002FEF3FEF4FE75FECC701B6010E94E8131A
:100DF00087FDE0CF20E030E0A901C701B6010E94E5
:100E0000E813312C212C87FF0DC0E881F981019076
:100E1000F081E02D6DE2CE0109951C01F7FAF09406
:100E2000F7F8F09410E060E070E080E09FE3711666
:100E300041F020E030E040E251E40E9413161F5FD1
:100E4000F6CFA70196010E94A7152B013C010E9435
:100E500085164B015C012AE0BC01A401CE010E9471
:100E600049067C01E20CF31C1123E1F1C501B40138
:100E70000E94ED139B01AC01C301B2010E94A615B3
:100E80004B015C01E881F9810190F081E02D6EE277
:100E9000CE010995E80EF91E115020F120E030E056
:100EA00040E251E4C501B4010E944E142B013C0103
:100EB0000E9485164B01B12CA12C2AE0B501A4019A
:100EC000CE010E944906E80EF91EC501B4010E9438
:100ED000ED139B01AC01C301B2010E94A6154B01A9
:100EE0005C01DACFC701DF91CF911F91FF90EF90A6
:100EF000DF90CF90BF90AF909F908F907F906F903A
:100F00005F904F903F902F900895CF93DF93EC0127
:100F100060E08E810E94460261E08E810E9446025E
:100F200060E08E810E9446028BE891E00197F1F724
:100F3000DF91CF910895CF92DF92EF92FF920F93BE
:100F40001F93CF93DF936C017C0187E0E80EF11CC7
:100F5000D0E0C0E0062F10E0B8010C2E02C075955D
:100F600067950A94E2F76170F70181917F010E9411
:100F700046022196C430D10579F7C601DF91CF91A1
:100F80001F910F91FF90EF90DF90CF900C94850709
:100F9000CF92DF92EF92FF920F931F93CF93DF9345
:100FA000EC01F62E642F8C810E9446028D818F3FCA
:100FB00019F060E00E9446020F2D10E08F8584FF3B
:100FC00025C06E0187E0C80ED11CF12CE12CB801C0
:100FD0000E2C02C0759567950A94E2F76170F601D0
:100FE00081916F010E944602FFEFEF1AFF0A88E02D
:100FF000E816F10461F7CE01DF91CF911F910F91B7
:10100000FF90EF90DF90CF900C948507B80184E0BB
:10101000759567958A95E1F7CE010E949B076F2D24
:10102000CE01DF91CF911F910F91FF90EF90DF9054
:10103000CF900C949B0740E0682F8AE094E00C94DA
:10104000C807CF93DF93823029F4909119049860F8
:101050009093190480931D0410921E0480E48093E1
:101060001F0480E18093200480E58093210461E0E7
:1010700080910E040E94740280910F048F3F19F03A
:1010800061E00E94740261E0809110040E94740289
:10109000CAE0D4E09E012A5034408091190484FDB6
:1010A0000BC084E090E021962817390744F461E0F2
:1010B0008E810E947402EECF88E090E0F4CF8BE343
:1010C0009DE00197F1F760E080910E040E944602D6
:1010D00060E0809110040E94460280910F048F3FCF
:1010E00019F060E00E9446028091190484FD39C025
:1010F00063E08AE094E00E949B07CBE4D6E4CE0153
:101100000197F1F763E08AE094E00E949B07219742
:10111000F1F763E08AE094E00E949B0783E592E0A8
:101120000197F1F762E08AE094E00E949B078091CA
:10113000190480620E941B0884E080931A048CE0EA
:101140000E941B0881E00E941B088BE39FE101972E
:10115000F1F782E080931B0486E0DF91CF910C943D
:101160001B0880620E941B088BE496E40197F1F74C
:101170008091190480620E941B0883E592E0019728
:10118000F1F78091190480620E941B08D0CF41E0E2
:101190000E94C80781E090E00895DF92EF92FF92ED
:1011A0000F931F93CF93DF93EC017B018A01E881BA
:1011B000F9810680F781E02D0995D82E8823D1F09A
:1011C000E114F104B1F00115110599F0FE01E359A4
:1011D000FF4F80818750F8019081891708F4808340
:1011E000F801408150E0BE01625D7F4FC7010E945F
:1011F000AB1819A28D2DDF91CF911F910F91FF9008
:10120000EF90DF9008954F925F926F927F92AF922E
:10121000BF92CF92DF92EF92FF921F93CF93DF9313
:1012200000D0CDB7DEB77C0190935202809351027B
:1012300061E0FC01848D0E94740260E0F701838DFF
:101240000E94740261E0F701858D0E947402C7015B
:101250000E94DA02F701C18CD28CC114D10409F4C6
:1012600044C0F12CE12C83E0CC0CDD1CEE1CFF1CF7
:101270008A95D1F794E6A92E91E0B92E11E0412C80
:1012800024E2522E24EF622E712C42E050E0B50190
:10129000CE0101960E94A81129813A8150E040E0D8
:1012A000C301B2010E947515CA01B901A7019601D7
:1012B0000E947515DA01C9010297A109B1098D3F94
:1012C0009F4FA105B10510F11F5F62E0A60EB11C92
:1012D0001730D9F6223031054105510530F021157E
:1012E000310581E04807510598F081E00F900F909B
:1012F000DF91CF911F91FF90EF90DF90CF90BF9043
:10130000AF907F906F905F904F900895163069F383
:101310001092800088E08093810080918100182BDA
:1013200010938100309389002093880080916F0092
:10133000826080936F00D9CF0F931F93CF93FC01EE
:101340008281938140E054E264EF70E08430910543
:10135000C1F040E052E16AE770E08330910589F026
:1013600040E059E06DE370E08230910551F040E4D7
:1013700052E46FE070E0019721F440E854E86EE138
:1013800070E0A481B58186819781009709F466C0D9
:101390008130910509F45EC08230910509F45CC08A
:1013A000039709F05BC08CE000E012E12AE730E02F
:1013B00090E0401751076207730740F43695279570
:1013C000179507959F5F9630A1F797E021E02927B1
:1013D00030E5119709F430E72695282B232B208739
:1013E000909591709187CFB7F89480914D028111BB
:1013F00027C0E8E9F1E08491ECEAF1E09491E82F6C
:10140000F0E0EE0FFF1FE658FE4FA591B491EC916E
:10141000E92321F461E08AE00E94460261E08AE06B
:101420000E9474028CB580618CBD8CB580648CBDCB
:1014300061E08DE00E94740261E08BE00E94740222
:1014400080914D028F5F80934D02CFBFCF911F914E
:101450000F91089584E0A8CF88E0A6CF80E0A4CFC4
:101460004F925F926F927F928F929F92AF92BF92B4
:10147000CF92DF92EF92FF92CF93DF93FC01278907
:10148000308D232B09F455C0EC010E94CA022B01B8
:101490003C01E881F981008CF18DE02DCE010995A8
:1014A000882309F446C00E94CA02AB01BC0144195A
:1014B0005509660977098F89988DB0E0A0E08417F7
:1014C0009507A607B70708F444C00E94501129E009
:1014D00030E040E050E00E940C159B01AC012F5F12
:1014E0003F4F4F4F5F4FA4E6B0E00E942B156B01BA
:1014F0007C010E94A5024B015C01C114D104E104EE
:10150000F10439F20E94A502681979098A099B0938
:10151000683E73408105910580F3F1E0CF1AD10850
:10152000E108F10828EE820E23E0921EA11CB11CF6
:10153000E4CF81E0DF91CF91FF90EF90DF90CF90EB
:10154000BF90AF909F908F907F906F905F904F90E3
:10155000089580E0EFCF1F93CF93DF9385ED8093C5
:10156000BC008091DF019091E001A091E101B09178
:10157000E2010796A11DB11D23E0B695A7959795A9
:1015800087952A95D1F72091BC0024FD03C01092C5
:10159000270252C04091DF015091E0016091E101CA
:1015A0007091E201452B462B472B69F30097A1056B
:1015B000B10541F02AE22A95F1F700C00197A1098F
:1015C000B109E1CF8091DE01C1E0C093DD01882344
:1015D00099F1D091B8001091BA008091BC008A7B3B
:1015E0008093BC0060E082E10E94460260E083E1FB
:1015F0000E94460210922702C093290210922802EC
:1016000061E082E10E94460261E083E10E944602BD
:101610008091B9008E7F8093B9008091B9008D7F51
:101620008093B90088E48093B80085E48093BC007F
:101630001093BA00D093B800DF91CF911F91089515
:101640001F920F920FB60F9211242F933F934F9337
:101650005F936F937F938F939F93AF93BF93EF931A
:10166000FF9383E692E00E948E01FF91EF91BF917C
:10167000AF919F918F917F916F915F914F913F912A
:101680002F910F900FBE0F901F9018951F920F92E1
:101690000FB60F9211242F938F939F93EF93FF9385
:1016A000E0917302F09174028081E0917902F091EF
:1016B0007A0282FD1BC0908180917C028F5F8F73C4
:1016C00020917D02821741F0E0917C02F0E0ED591B
:1016D000FD4F958F80937C02FF91EF919F918F91A9
:1016E0002F910F900FBE0F901F9018958081F4CF0F
:1016F0001F920F920FB60F9211242F933F938F9347
:101700009F93AF93BF938091540290915502A09103
:101710005602B09157023091530223E0230F2D3728
:1017200058F50196A11DB11D2093530280935402D8
:1017300090935502A0935602B0935702809158029D
:1017400090915902A0915A02B0915B020196A11D9D
:10175000B11D8093580290935902A0935A02B093FE
:101760005B02BF91AF919F918F913F912F910F900D
:101770000FBE0F901F90189526E8230F0296A11D0B
:10178000B11DD2CF1F920F920FB60F9211242F933B
:101790003F934F935F936F937F938F939F93AF93F9
:1017A000BF93EF93FF93E0910201F091030109953C
:1017B000FF91EF91BF91AF919F918F917F916F9129
:1017C0005F914F913F912F910F900FBE0F901F90FF
:1017D00018951F920F920FB60F9211242F933F93DB
:1017E0004F935F936F937F938F939F93AF93BF9329
:1017F000EF93FF93E0910001F09101010995FF91B2
:10180000EF91BF91AF919F918F917F916F915F9178
:101810004F913F912F910F900FBE0F901F901895F1
:101820001F920F920FB60F921124CF92DF92EF9278
:10183000FF920F931F932F933F934F935F936F9359
:101840007F938F939F93AF93BF93CF93DF93EF9348
:10185000FF93C0915102D09152028A819B810497DB
:1018600009F0E1C02B8D30E0F901EA54FE4F84917C
:10187000F901EE55FE4F0491F901E257FE4F149124
:10188000112379F081110E941D02E12FF0E0EE0F8B
:10189000FF1FE059FE4FA591B491EC910E2381E01A
:1018A00009F480E081702E8D982F9227821719F00D
:1018B0008BA18F5F8BA38AA18917F1F18CA12DE1F8
:1018C000803508F42BE08CA1820F8CA39AA38CA105
:1018D000803A08F46DC08EA19FA1969587959FA32D
:1018E0008EA38BA1853028F08EA19FA198609FA325
:1018F0008EA38CA1805A8CA31BA28DA1882309F4EE
:1019000086C088A58F5F88A78C3008F451C08EA14F
:101910009FA1982F9F73892F86958695887028E0C0
:10192000280F281769F0E82FF0E0EA5EFE4F3081BB
:10193000931739F08F5FF5CF8CA18C5E8CA3C7CF46
:1019400080E090E1899F900111248EA19FA136E053
:10195000969587953A95E1F7482F959587959595B2
:101960008795887098E0980F891749F0E82FF0E084
:10197000EA5EFE4F5081451719F08F5FF5CF80E08A
:10198000822BDE01A359BF4F9C91AE0144595F4F9A
:10199000911127C0FA0180839081973018F09081CF
:1019A0009434F8F01DA2888999890196998B888BC7
:1019B000FF91EF91DF91CF91BF91AF919F918F9167
:1019C0007F916F915F914F913F912F911F910F9157
:1019D000FF90EF90DF90CF900F900FBE0F901F9071
:1019E00018952C9191E0920F9C932C0F3D2F311D57
:1019F000F90181A79C91DA018C91981730F01DA212
:101A000081E088A3CE010E94DA0218A6D1CF8EA170
:101A10009FA188339B4061F681E08DA318A6C3592E
:101A2000DF4F1882C5CF8A819B81039709F68E010B
:101A300000591F4FF801808191E0980F9083811128
:101A400013C06E01FEE6CF0ED11CD601EC91AF564D
:101A5000BF4F8C91E81778F0CE010E94DA028C8992
:101A60009D8901969D8B8C8BD8018C91883008F4D0
:101A70009FCF1C929DCFEC0FFD2FF11DEF58FF4F14
:101A8000608170E07E01BFE6EB0EF11CF701808102
:101A900091E0980F908302C0759567958A95E2F75B
:101AA00061708C8D0E944602D7018C918630E0F2E5
:101AB0001C92F60180818F5F8083D6CF1F920F9298
:101AC0000FB60F9211242F933F934F935F936F9311
:101AD0007F938F939F93AF93BF93EF93FF938091E7
:101AE000B900887F803609F44AC0F0F5883209F4DD
:101AF000A5C018F5803109F499C0B8F4882309F419
:101B0000F5C0883009F492C0FF91EF91BF91AF9179
:101B10009F918F917F916F915F914F913F912F9105
:101B20000F900FBE0F901F901895883109F486C052
:101B3000803251F78093260214C0803409F49BC090
:101B400040F48033B9F38833F9F68093260285ECAC
:101B5000AEC0803509F483C0883509F494C0883458
:101B600099F60E94AB0AD0CF883909F48AC038F5BB
:101B7000883729F050F4883611F0803729F683E051
:101B8000809327021092250255C0883809F479C045
:101B9000803919F0803809F0B7CF80912502803262
:101BA00008F06FC0E091250281E08E0F809325023E
:101BB0008091BB00F0E0EB5FFD4F80833BC0803B3A
:101BC00039F0D0F4803A09F477C0883A09F09CCF14
:101BD00084E0809327021092040210920302F0E046
:101BE000E0E009958091030281110FC081E08093AC
:101BF00003021092E30109C0803C09F4A8CF883C9D
:101C000009F4A5CF883B09F07FCFE091040281E081
:101C10008E0F80930402F0E0ED51FE4F808180939F
:101C2000BB00909104028091030229C080914C0274
:101C30008093BB0085EC8093BC0066CF90914B02F3
:101C400080914A02981758F5E0914B0281E08E0F7F
:101C500080934B02F0E0E65DFD4F8081E9CFE0919B
:101C60004B0281E08E0F80934B028091BB00F0E02D
:101C7000E65DFD4F808390914B0280914A02981758
:101C8000C8F285E8D8CFE0914B0281E08E0F8093B7
:101C90004B028091BB00F0E0E65DFD4F80838091B8
:101CA000290281115ECF81E08093280284EA80932B
:101CB000BC001092270228CF85EC8093BC001092C4
:101CC000270280912502803230F4E0912502F0E075
:101CD000EB5FFD4F10826091250270E085E092E09D
:101CE000F0E0E0E00995109225020ECF1092260256
:101CF00038CF1F93CF93DF93CDB7DEB728970FB6BA
:101D0000F894DEBF0FBECDBFE3E6F2E0138212828D
:101D100088EE93E0A0E0B0E084839583A683B78348
:101D20008AE291E09183808385EC90E095878487B7
:101D300084EC90E09787868780EC90E0918B808B95
:101D400081EC90E0938B828B82EC90E0958B848B7E
:101D500086EC90E0978B868B118E128E138E148EEC
:101D6000E0E0F3E013821282158214821782168259
:101D70008CE391E09183808380E580871186EAE09F
:101D8000F4E01382128286E991E09183808382E0FD
:101D900084831FEF158383E0868384E0878385E057
:101DA000808786E0818787E0828713861486158680
:101DB0001686178681E00E942108EAE0F3E013828C
:101DC000128214831287138714861586118A108A4B
:101DD000138A128A158A148A108E178A86E591E072
:101DE0009183808380ED97E0928F818F8BE0838F4A
:101DF0008CE0848F8AE0858F168E178E88E0EEE067
:101E0000F1E0DE01119601900D928A95E1F788E0EC
:101E1000FE013196ABE7B3E001900D928A95E1F7B0
:101E200028960FB6F894DEBF0FBECDBFDF91CF91DD
:101E30001F910895CF93DF93CDB7DEB7A1970FB66B
:101E4000F894DEBF0FBECDBF789484B5826084BDA8
:101E500084B5816084BD85B5826085BD85B58160AE
:101E600085BD80916E00816080936E00109281002C
:101E700080918100826080938100809181008160E7
:101E800080938100809180008160809380008091A8
:101E9000B10084608093B1008091B0008160809334
:101EA000B00080917A00846080937A0080917A00FB
:101EB000826080937A0080917A00816080937A00BA
:101EC00080917A00806880937A001092C1008AE045
:101ED00093E00E940309E0917302F091740282E0A2
:101EE0008083E0916F02F09170021082E0917102A4
:101EF000F09172028FEC808310927B02E091770266
:101F0000F091780286E08083E0917502F09176028C
:101F1000808180618083E0917502F09176028081FA
:101F200088608083E0917502F091760280818068FC
:101F30008083E0917502F091760280818F7D8083AD
:101F400085E4382E95E0292E20E0E22E20E0F22EC6
:101F50000E94CA022B013C010E94CA026419750941
:101F600086099709623371058105910508F04DC016
:101F700030927C0080917A00806480937A00809116
:101F80007A0086FDFCCF8091780090917900289EA0
:101F9000B001299E700D1124072E000C880B990B9F
:101FA0000E94EF1320E030E040E85AE30E944E1414
:101FB0002FE23EE64FE150E40E94A61524EE3BE4FA
:101FC00048E35FE30E94131623EF34E045EB5FE341
:101FD0000E9413164B015C0120915F023091600258
:101FE00040916102509162020E94B41618160CF0E2
:101FF000B3CF82E00E94210880925F02909260023B
:10200000A0926102B0926202A7CF0E94CA02009120
:102010005D0210915E02012E000C220B330B601B3F
:10202000710B820B930B693C71058105910508F4D6
:1020300063C00E94CA0270935E0260935D02E091E9
:102040001D04E23008F0B8C0E150F0E0E65FFB4F5D
:10205000848980680E941B082DEC3CEC4CE150E424
:1020600060915F02709160028091610290916202C2
:102070000E94E81364EC71E087FF3AC06AEA71E0FD
:1020800083E692E00E943A0640915F02509160021E
:10209000609161027091620222E083E692E00E9408
:1020A00097066EEB71E083E692E00E943A0661ECDF
:1020B00071E083E692E00E943A066AEA71E08AE003
:1020C00094E00E943A0640915F0250916002609154
:1020D00061027091620222E08AE094E00E94970619
:1020E0006EEB71E08AE094E00E943A0661EC71E0E8
:1020F0008AE094E00E943A0660915F02709160026B
:1021000080916102909162028E010F5F1F4F22E069
:1021100044E00E94E6104C01009709F44FC0FC0116
:1021200001900020E9F731976F01C81AD90AB6016A
:102130006F5F7F4F90E080E00E94E9178C0100976D
:1021400009F441C0FC011082B4010E94B418FE01E0
:10215000319690E080E08C159D0530F4D801A80FF1
:10216000B91F0115110521F410925C02ACE5B2E033
:102170002C91219301968630910569F746E0BE01C6
:102180006F5F7F4F8AE093E00E943D048AE093E016
:102190000E94D8030115110519F0C8010E946017AB
:1021A000E114F10409F4D4CE0E947A01882309F4E1
:1021B000CFCE0E940000CCCEE1E047CFD12CC12C85
:1021C00010E000E0C4CFD12CC12CC1CFEF920F930F
:1021D0001F93CF93DF93E80134E047FD34E1042EF1
:1021E000000C550B57FF03C0519541955109E32E43
:1021F000022F242FAE010E94B111CE01DF91CF91A9
:102200001F910F91EF9008958F929F92AF92BF927E
:10221000CF92DF92EF92FF92CF93DF93EC01688130
:1022200079818A819B81611571058105910521F470
:1022300064E279ED8BE597E02DE133EF41E050E08A
:102240000E940C1549015A019B01AC01A7EAB1E4B7
:102250000E942B156B017C01ACEEB4EFA50194013B
:102260000E943915C60ED71EE81EF91EF7FE06C0DD
:1022700081E0C81AD108E10880E8F80AC882D9824A
:10228000EA82FB82C701B6019F77DF91CF91FF9071
:10229000EF90DF90CF90BF90AF909F908F90089578
:1022A0008F929F92AF92BF92CF92DF92EF92FF9266
:1022B00060910401709105018091060190910701E0
:1022C000611571058105910521F464E279ED8BE5D5
:1022D00097E02DE133EF41E050E00E940C154901F9
:1022E0005A019B01AC01A7EAB1E40E942B156B01D6
:1022F0007C01ACEEB4EFA50194010E943915C60E25
:10230000D71EE81EF91EF7FE06C081E0C81AD108E4
:10231000E10880E8F80AC0920401D0920501E09239
:102320000601F0920701C701B6019F77FF90EF9079
:10233000DF90CF90BF90AF909F908F900895609363
:10234000040170930501809306019093070108959D
:10235000FB01DC0102C005900D9241505040D8F7BE
:102360000895A9E0B0E0E7EBF1E10C9444156A01AF
:10237000F22EB02E102FFBE3AF2EA01608F41BE3B5
:102380001F5F012F27E0AE014F5F5F4F0E941013C8
:10239000BC018981982F9970913009F43FC09BE26C
:1023A000E1FC04C09E2D9170E0FC3AC05E2D50719E
:1023B000E82FE87083FF46C084E0911101C083E0FC
:1023C000EF2DE81B8F1508F0E0E0D6018E2F20E2FC
:1023D000552351F1992329F0D6019C93C60101960A
:1023E0006C0196012D5F3F4FE2FE24C08EE4D601C2
:1023F0008C9391E411969C93119712968C93D9012A
:102400008E2F90E281111BC0E20FF32FF11D10827D
:102410008EEF9FEF2996ECE00C9460159DE2C6CFFD
:1024200090E2C4CF2D9381508111FCCFCE0ED11CF0
:10243000E0E0D0CF8EE6D6018C9391E6DBCF9D9382
:102440008150E0CF482F447082FF3DC084E091115D
:1024500001C083E08F1510F4EF2DE81BD6018E2FFD
:1024600020E2552309F1992329F0D6019C93C60156
:1024700001966C0196012D5F3F4FE2FE1BC089E47F
:10248000D6018C938EE411968C93119786E4129664
:102490008C93D9018E2F90E2882309F4B5CF9D93B8
:1024A0008150FACF2D9381508111FCCFCE0ED11CDB
:1024B000E0E0D9CF89E6D6018C938EE611968C9315
:1024C000119786E6E4CF9B0177FF02C030E020E061
:1024D000A1E0B0E0911102C0B0E0A0E0F9013196B6
:1024E000AE0FBF1F8B2C912CBB2009F461C054018F
:1024F000EFEFAE1ABE0AAA0DBB1DFA161B0619F0A5
:1025000014F04F2D4A1B511188C0E3FC59C07601CD
:10251000A42FB0E2A1114FC0C40ED11C992309F41D
:102520005BC040E0D6011196F60190836D01552302
:1025300009F448C0012F060F9A81582F507184FF6B
:1025400003C0913309F4015010160CF047C0093054
:1025500008F008E0EEE2FE2E5B01A01AB10885014A
:102560009194819491082F3F320729F4D601FC926F
:10257000F60131966F016217730794F10217130782
:102580007CF5DB01A21BB30BAA24A394B12CAC0EE7
:10259000BD1EAA0DBB1D11968C9121503109D6018B
:1025A000119628153905F4F0F60180836D01DBCF13
:1025B000B12CA12CA0CFF701B1937F01A150AACFDC
:1025C0009111B0CFD601942F50E302C05D9391508A
:1025D0009111FCCFC40ED11C40E0ACCF01E0BACFCA
:1025E00080E3DBCF6217730731F4963388F49533B9
:1025F00011F4552369F0F6018083FD01842F90E2E8
:10260000811108C0A40FB11D1C9290E080E002CFA0
:1026100081E3F1CF91938150F3CF911183CF8ACF92
:10262000283008F027E03327DA01990F311D87FDA4
:10263000916000966105710539F432602E5F3D931B
:1026400030E32A95E1F708959F3F30F08038710517
:10265000610509F03C5F3C5F3D93913008F0806874
:10266000911DDF93CF931F930F93FF92EF92192F3A
:10267000987F9695E92F96959695E90FFF27EE534B
:10268000FF4F99273327EE24FF24A701E701059088
:102690000894079428F4360FE71EF81E491F511DB1
:1026A000660F771F881F991F0694A1F7059007945E
:1026B00028F4E70EF81E491F561FC11D770F881F0B
:1026C000991F661F0694A1F70590079428F4F80E49
:1026D000491F561FC71FD11D880F991F661F771FDF
:1026E0000694A1F70590079420F4490F561FC71FC1
:1026F000D81F990F661F771F881F0694A9F784912A
:102700001095177041F0D695C79557954795F79452
:10271000E7941A95C1F7E8E6F0E0689415901591F2
:1027200035916591959105907FE27395E118F10AD5
:10273000430B560BC90BD009C0F7E10CF11E431F28
:10274000561FC91FD01D7EF4703311F48A95E6CF51
:10275000E894015030F0080F0AF40027021708F43B
:10276000202F2395022F7A3328F079E37D932A9541
:10277000E9F710C07D932A9589F606949795679599
:10278000379517951794E118F10A430B560BC90BAF
:10279000D00998F023957E9173957A3308F070E311
:1027A0007C932013B8F77E9170617D9330F0839510
:1027B00071E37D9370E32A95E1F71124EF90FF9088
:1027C0000F911F91CF91DF91992787FD90950895E3
:1027D0000E942A1408F481E00895E89409C097FB48
:1027E0003EF490958095709561957F4F8F4F9F4FE8
:1027F0009923A9F0F92F96E9BB279395F69587952C
:1028000077956795B795F111F8CFFAF4BB0F11F4EE
:1028100060FF1BC06F5F7F4F8F4F9F4F16C0882395
:1028200011F096E911C0772321F09EE8872F762FCB
:1028300005C0662371F096E8862F70E060E02AF00C
:102840009A95660F771F881FDAF7880F96958795F8
:1028500097F90895990F0008550FAA0BE0E8FEEFCD
:1028600016161706E807F907C0F012161306E40754
:10287000F50798F0621B730B840B950B39F40A264D
:1028800061F0232B242B252B21F408950A2609F42B
:10289000A140A6958FEF811D811D08950E946114AE
:1028A0000C94D2140E94C41438F00E94CB1420F06F
:1028B000952311F00C94BB140C94C11411240C94A6
:1028C00006150E94E31470F3959FC1F3950F50E035
:1028D000551F629FF001729FBB27F00DB11D639FD2
:1028E000AA27F00DB11DAA1F649F6627B00DA11D78
:1028F000661F829F2227B00DA11D621F739FB00D1E
:10290000A11D621F839FA00D611D221F749F33278D
:10291000A00D611D231F849F600D211D822F762F26
:102920006A2F11249F5750409AF0F1F088234AF003
:10293000EE0FFF1FBB1F661F771F881F915050406F
:10294000A9F79E3F510580F00C94BB140C9406151A
:102950005F3FE4F3983ED4F3869577956795B795F6
:10296000F795E7959F5FC1F7FE2B880F911D969510
:10297000879597F9089597F99F6780E870E060E080
:1029800008959FEF80EC089500240A941616170608
:1029900018060906089500240A9412161306140650
:1029A00005060895092E0394000C11F4882352F0B3
:1029B000BB0F40F4BF2B11F460FF04C06F5F7F4F6B
:1029C0008F4F9F4F089557FD9058440F551F59F052
:1029D0005F3F71F04795880F97FB991F61F09F3F0C
:1029E00079F087950895121613061406551FF2CF35
:1029F0004695F1DF08C0161617061806991FF1CF85
:102A000086957105610508940895E894BB276627AB
:102A10007727CB0197F90895052E97FB1EF40094B4
:102A20000E94231557FD07D00E94751507FC03D09F
:102A30004EF40C94231550954095309521953F4FB9
:102A40004F4F5F4F089590958095709561957F4F9A
:102A50008F4F9F4F08950E949715A59F900DB49F8B
:102A6000900DA49F800D911D11240895B7FF0C9423
:102A70002B150E942B15821B930B08952F923F92CA
:102A80004F925F926F927F928F929F92AF92BF927E
:102A9000CF92DF92EF92FF920F931F93CF93DF932A
:102AA000CDB7DEB7CA1BDB0B0FB6F894DEBF0FBE87
:102AB000CDBF09942A88398848885F846E847D84D4
:102AC0008C849B84AA84B984C884DF80EE80FD80D6
:102AD0000C811B81AA81B981CE0FD11D0FB6F8944C
:102AE000DEBF0FBECDBFED010895A1E21A2EAA1BD5
:102AF000BB1BFD010DC0AA1FBB1FEE1FFF1FA217AE
:102B0000B307E407F50720F0A21BB30BE40BF50BAA
:102B1000661F771F881F991F1A9469F76095709533
:102B2000809590959B01AC01BD01CF010895A29FB6
:102B3000B001B39FC001A39F700D811D1124911D91
:102B4000B29F700D811D1124911D08955058BB270F
:102B5000AA270E94BE150C94D2140E94C41438F007
:102B60000E94CB1420F039F49F3F19F426F40C9402
:102B7000C1140EF4E095E7FB0C94BB14E92F0E94FE
:102B8000E31458F3BA17620773078407950720F018
:102B900079F4A6F50C9405150EF4E0950B2EBA2FDA
:102BA000A02D0B01B90190010C01CA01A001112453
:102BB000FF27591B99F0593F50F4503E68F11A16FF
:102BC000F040A22F232F342F4427585FF3CF469590
:102BD00037952795A795F0405395C9F77EF41F16B2
:102BE000BA0B620B730B840BBAF09150A1F0FF0F7C
:102BF000BB1F661F771F881FC2F70EC0BA0F621F68
:102C0000731F841F48F4879577956795B795F79557
:102C10009E3F08F0B0CF9395880F08F09927EE0FEC
:102C20009795879508950E9427160C94D2140E94B8
:102C3000CB1458F00E94C41440F029F45F3F29F0EF
:102C40000C94BB1451110C9406150C94C1140E94E1
:102C5000E31468F39923B1F3552391F3951B550BB6
:102C6000BB27AA2762177307840738F09F5F5F4F5F
:102C7000220F331F441FAA1FA9F335D00E2E3AF09E
:102C8000E0E832D091505040E695001CCAF72BD0B6
:102C9000FE2F29D0660F771F881FBB1F2617370707
:102CA0004807AB07B0E809F0BB0B802DBF01FF2739
:102CB00093585F4F3AF09E3F510578F00C94BB1447
:102CC0000C9406155F3FE4F3983ED4F38695779510
:102CD0006795B795F7959F5FC9F7880F911D9695F2
:102CE000879597F90895E1E0660F771F881FBB1F4E
:102CF000621773078407BA0720F0621B730B840BFB
:102D0000BA0BEE1F88F7E09508950E94EB1488F047
:102D10009F5798F0B92F9927B751B0F0E1F0660F9F
:102D2000771F881F991F1AF0BA95C9F714C0B130E0
:102D300091F00E940515B1E008950C940515672FD8
:102D4000782F8827B85F39F0B93FCCF3869577950F
:102D50006795B395D9F73EF49095809570956195F8
:102D60007F4F8F4F9F4F08950E942A1408F48FEFD2
:102D700008950E942A14880B990B0895EE0FFF1FE7
:102D80000590F491E02D09940F931F93CF93DF9357
:102D90008230910510F482E090E0E0912404F091FB
:102DA000250430E020E0B0E0A0E0309799F4211550
:102DB000310509F44AC0281B390B24303105D8F5F8
:102DC0008A819B816115710589F1FB01938382835F
:102DD000FE0111C0408151810281138148175907BA
:102DE000E0F04817590799F4109761F012960C9388
:102DF000129713961C933296CF01DF91CF911F91BA
:102E00000F9108950093240410932504F4CF211505
:102E1000310551F04217530738F0A901DB019A013F
:102E2000BD01DF01F801C1CFEF01F9CF9093250477
:102E300080932404CDCFFE01E20FF31F8193919381
:102E40002250310939832883D7CF20912204309131
:102E50002304232B41F420910A0130910B0130937C
:102E600023042093220420910801309109012115A7
:102E7000310541F42DB73EB740910C0150910D0141
:102E8000241B350BE0912204F0912304E217F30791
:102E9000A0F42E1B3F0B2817390778F0AC014E5FCA
:102EA0005F4F2417350748F04E0F5F1F50932304E0
:102EB00040932204819391939FCFF0E0E0E09CCF78
:102EC000CF93DF930097E9F0FC01329713821282CF
:102ED000A0912404B0912504ED0130E020E010978A
:102EE000A1F420813181820F931F2091220430911F
:102EF00023042817390709F061C0F0932304E093F5
:102F00002204DF91CF910895EA01CE17DF07E8F59B
:102F10004A815B819E0141155105B1F7E901FB83AF
:102F2000EA8349915991C40FD51FEC17FD0761F44D
:102F3000808191810296840F951FE901998388838E
:102F4000828193819B838A83F0E0E0E012968D91E9
:102F50009C9113970097B9F52D913C911197CD0154
:102F60000296820F931F2091220430912304281788
:102F7000390739F6309751F5109225041092240440
:102F8000B0932304A0932204BCCFD383C283408197
:102F90005181840F951FC817D90761F44E5F5F4FA9
:102FA00088819981480F591F518340838A819B8171
:102FB000938382832115310509F0B0CFF093250466
:102FC000E09324049ECFFD01DC01C0CF1382128266
:102FD000D7CFB0E0A0E0EFEEF7E10C9440158C0104
:102FE000009751F4CB010E94C4168C01C801CDB7E3
:102FF000DEB7E0E10C945C15FC01E60FF71F9C01C5
:1030000022503109E217F30708F49DC0D901CD9190
:10301000DC911197C617D70798F0C530D10530F36A
:10302000CE0104978617970708F3C61BD70B229784
:10303000C193D1936D937C93CF010E946017D6CF3B
:103040005B01AC1ABD0A4C018C0E9D1EA09124049C
:10305000B0912504512C412CF12CE12C109731F525
:1030600080912204909123048815990509F05CC091
:103070004616570608F058C0809108019091090142
:10308000009741F48DB79EB740910C0150910D010E
:10309000841B950BE817F90708F055C0F09323043B
:1030A000E0932204F90171836083A0CF8D919C91FC
:1030B000119712966C90129713967C901397A815FF
:1030C000B90559F56C0142E0C40ED11CCA14DB04E9
:1030D00020F1AC014A195B09DA011296159780F0CC
:1030E0006282738251834083D9016D937C93E11492
:1030F000F10471F0D7011396FC93EE93129776CFFB
:1031000022968C0F9D1FF90191838083F301EFCFED
:10311000F0932504E093240469CF4816590608F477
:103120002C017D01D3019ACFCB010E94C4167C01F2
:10313000009749F0AE01B8010E94AB18C8010E9487
:103140006017870153CF10E000E050CF81E090E09E
:10315000F8940C94BB18FB01DC0102C001900D92A5
:1031600041505040D8F70895FB01DC0101900D92C9
:0A3170000020E1F70895F894FFCF66
:10317A00D602D602010000000000260480002A2A96
:10318A002A2A2A2A382C0D0E131516191A1C232539
:10319A0026292A2C323400000000B00110013D011A
:1031AA00FD016E014C016001000000005803540348
:1031BA0050039C093C03670363035F031F030E0369
:1031CA00F40200000000D702380603098405CD087E
:1031DA003D04D8021304D803A903E003300A790393
:1031EA00A303A0039D039A039303A60390038D03ED
:1031FA008A03870383037F037B03790375037103C0
:10320A006D0300000000C708100135066C036E61EB
:10321A006E00696E66006F766600436F6E73756D39
:10322A0065722043757272656E74203D20002041DC
:10323A00000D0A00436F6E73756D657220437572D7
:0C324A0072656E74203D204D415800005C
:00000001FF
