:100000000C9487000C949A0B0C94730B0C94AF0017
:100010000C94AF000C94AF000C94AF000C94AF00A4
:100020000C94AF000C94AF000C94AF000C94C10B77
:100030000C94AF000C94AF000C94AF000C94AF0084
:100040000C94290B0C94AF000C94F70A0C94D10A71
:100050000C94AF000C94AF000C94AF000C94AF0064
:100060000C940F0D0C94AF004E414E494E4954591B
:10007000494E46CDCCCC3D0AD7233C17B7D1387773
:10008000CC2B329595E6241FB14F0A000020410089
:1000900000C84200401C4620BCBE4CCA1B0E5AAED3
:1000A000C59D740000010008004000000100040527
:1000B0000D0000000023002600290000000000249D
:1000C0000027002A0000000000250028002B000463
:1000D00004040404040404020202020202030303EF
:1000E00003030301020408102040800102040810E9
:1000F0002001020408102000000008000201000096
:100100000304070000000000000000002A0E112474
:100110001FBECFEFD8E0DEBFCDBF11E0A0E0B1E061
:10012000E0E2F0E302C005900D92A43FB107D9F7D9
:1001300024E0A4EFB1E001C01D92A134B207E1F7C1
:1001400010E0C7E8D0E004C02197FE010E9411161C
:10015000C638D107C9F70E94CC0E0C940E180C9427
:100160000000AF92BF92CF92DF92EF92FF920F9377
:100170001F93CF93DF936C017B018B01040F151F3D
:10018000EB015E01AE18BF08C017D10759F06991A5
:10019000D601ED91FC910190F081E02DC601099509
:1001A000892B79F7C501DF91CF911F910F91FF90B6
:1001B000EF90DF90CF90BF90AF900895FC01538DEA
:1001C000448D252F30E0842F90E0821B930B541731
:1001D00010F0CF96089501970895FC01918D828DBE
:1001E000981761F0A28DAE0FBF2FB11D5D968C9157
:1001F000928D9F5F9F73928F90E008958FEF9FEF96
:100200000895FC01918D828D981731F0828DE80F51
:10021000F11D858D90E008958FEF9FEF0895FC010B
:10022000918D228D892F90E0805C9F4F821B9109D8
:100230008F73992708958CE792E00E940F0121E0C7
:10024000892B09F420E0822F089580E090E0892B2B
:1002500029F00E941B0181110C9400000895FC01FB
:10026000A48DA80FB92FB11DA35ABF4F2C91848D17
:1002700090E001968F739927848FA689B7892C9374
:10028000A089B1898C91837080648C93938D848DC7
:10029000981306C00288F389E02D80818F7D8083CA
:1002A0000895EF92FF920F931F93CF93DF93EC018A
:1002B00081E0888F9B8D8C8D98131AC0E889F9890D
:1002C000808185FF15C09FB7F894EE89FF89608310
:1002D000E889F98980818370806480839FBF81E091
:1002E00090E0DF91CF911F910F91FF90EF900895D3
:1002F000F62E0B8D10E00F5F1F4F0F731127E02EAE
:100300008C8D8E110CC00FB607FCFACFE889F989E5
:10031000808185FFF5CFCE010E942F01F1CFEB8DBB
:10032000EC0FFD2FF11DE35AFF4FF0829FB7F894B9
:100330000B8FEA89FB8980818062CFCFCF93DF93D7
:10034000EC01888D8823B9F0AA89BB89E889F989ED
:100350008C9185FD03C0808186FD0DC00FB607FC22
:10036000F7CF8C9185FFF2CF808185FFEDCFCE0155
:100370000E942F01E9CFDF91CF910895833081F062
:1003800028F4813099F08230A9F008958730A9F0DF
:100390008830C9F08430B1F4809180008F7D03C033
:1003A000809180008F7780938000089584B58F7747
:1003B00084BD089584B58F7DFBCF8091B0008F7789
:1003C0008093B00008958091B0008F7DF9CF1F9386
:1003D000CF93DF93282F30E0F901E950FF4F84914C
:1003E000F901ED51FF4FD491F901E153FF4FC49151
:1003F000CC23A9F0162F81110E94BE01EC2FF0E052
:10040000EE0FFF1FEB53FF4FA591B4918FB7F894F8
:10041000EC91111108C0D095DE23DC938FBFDF91E2
:10042000CF911F910895DE2BF8CFCF93DF9390E00B
:10043000FC01ED51FF4F249181539F4FFC018491AA
:100440008823D1F090E0880F991FFC01E554FF4FFD
:10045000A591B491FC01EB53FF4FC591D49161116B
:100460000EC09FB7F8948C91E22FE0958E238C9369
:100470002881E223E8839FBFDF91CF9108958FB752
:10048000F894EC91E22BEC938FBFF6CF3FB7F89442
:100490008091700290917102A0917202B0917302EA
:1004A00026B5A89B05C02F3F19F00196A11DB11DCF
:1004B0003FBFBA2FA92F982F8827BC01CD01620F0B
:1004C000711D811D911D42E0660F771F881F991FC6
:1004D0004A95D1F708952FB7F89460916C02709106
:1004E0006D0280916E0290916F022FBF0895089562
:1004F00008958CE30895CF93DF93FC01228133812B
:100500002230310569F0EC01678D858D0E94E7018D
:1005100060E08C8D0E94E70182E090E09B838A83FB
:10052000DF91CF91089581E008952FB7F89491E07D
:10053000662339F092E0613021F082E08093680216
:1005400090E080916702892B809367028091680216
:10055000811103C081E0809368022FBF08958091CC
:100560006802882361F09FB7F89420916802809117
:100570006602213019F48DBB9FBF08958FBF089587
:10058000FC013085218580916802882381F09FB726
:10059000F89480916802813069F48DB3809366028B
:1005A0004DB380916702809584238DBB9FBF3CBD76
:1005B0002DBD089590936602FACF9FB7F89480916D
:1005C0006502882319F0815080936502809165024D
:1005D000811105C08CB58F7B8CBD109268029FBFC6
:1005E00008958CB58F778CBD08958CB580688CBDCF
:1005F00008956EBD00000DB407FEFDCF8EB50895C1
:10060000FC01738362830895FC01778366830895F8
:10061000FC0175836483089508950895FC0184891D
:1006200095890895FC01828993890895FC01808948
:100630009189089580E00895FC0173836283089591
:10064000FC01828193810895FC0186859785089538
:10065000FC0181850895FC0180850895FC01878156
:100660000895FC01868108954095FC01258542236B
:10067000642B65870895FC0164870895FC016387F6
:100680000895FC0162870895FC0164830895FC01CC
:10069000658308958F929F92AF92BF92CF92DF921F
:1006A000EF92FF92CF93DF93EC016B010E946B02FC
:1006B0004B015C01F12CE12C0E946B026819790955
:1006C0008A099B096C157D058E059F0580F48A813A
:1006D0009B81039789F381E0DF91CF91FF90EF90A9
:1006E000DF90CF90BF90AF909F908F90089580E063
:1006F000F3CFFC012281338123303105D1F381E036
:1007000008958F929F92AF92BF92CF92DF92EF9215
:10071000FF92CF93DF93EC016B010E946B024B01C0
:100720005C01F12CE12C0E946B02681979098A099D
:100730009B096C157D058E059F05A0F4E881F98164
:100740000680F781E02DCE010995882361F3DF91C2
:10075000CF91FF90EF90DF90CF90BF90AF909F90A0
:100760008F90089580E0F3CFCF93DF93EC01E88181
:10077000F9810680F781E02DCE0109958823B9F330
:10078000DF91CF910895862720E1829FB001112447
:100790008627482F50E0292F382FCA0164E095950D
:1007A00087956A95E1F728273927CA0173E0880FF2
:1007B000991F7A95E1F78227932708956F927F9288
:1007C0008F929F92AF92BF92CF92DF92EF92FF9261
:1007D0000F931F93CF93DF934D3388F0712C872DA8
:1007E000DF91CF911F910F91FF90EF90DF90CF900D
:1007F000BF90AF909F908F907F906F900895042F3F
:100800005B01EC01E881F9810088F189E02D09950F
:10081000E881F9810688F789E02DCE010995782EC7
:100820008823E1F27E0129E7E20EF11C17E0100FA8
:10083000612F8FEF9FEF0E94C303E12FF0E064E090
:10084000F595E7956A95E1F7EA5EFE4F2081F7019D
:1008500020831F70E12FF0E0EA5EFE4F2081FE0151
:10086000E658FF4F20831A85612F0E94C303E12FB2
:10087000F0E074E0F595E7957A95E1F7EA5EFE4FD2
:100880002081FE01E558FF4F20831F70E12FF0E02B
:10089000EA5EFE4F2081FE01E458FF4F20831B8556
:1008A000612F0E94C303E12FF0E0A4E0F595E795E6
:1008B000AA95E1F7EA5EFE4F2081FE01E358FF4F63
:1008C00020831F70E12FF0E0EA5EFE4F2081FE01E1
:1008D000E258FF4F20831C85612F0E94C303E12F44
:1008E000F0E0B4E0F595E795BA95E1F7EA5EFE4FE2
:1008F0002081FE01E158FF4F20831F70E12FF0E0BF
:10090000EA5EFE4F2081FE01E058FF4F20831D85E7
:10091000612F0E94C303E12FF0E024E0F595E795F5
:100920002A95E1F7EA5EFE4F2081FE01EF57FF4F67
:1009300020831F70E12FF0E0EA5EFE4F2081FE0170
:10094000EE57FF4F20836501470110E0A00EB11E56
:10095000F2E08F0E911CCA14DB04E9F0F6016190FD
:100960006F01662D0E94C303E62DF0E054E0F5957B
:10097000E7955A95E1F7EA5EFE4F2081F401208762
:10098000F6013197E081EF70F0E0EA5EFE4F2081E2
:10099000F4012187DDCF98012B5F3F4F220F331FDA
:1009A00080959095D701A20FB31FFC0154E0F695F6
:1009B000E7955A95E1F7EF70FF27EA5EFE4F308129
:1009C0003C93F801EE0FFF1FBF016E0D7F1DAC01C0
:1009D0004F7055274A5E5E4FFA013081FB01338725
:1009E0000A5F1F4F000F111F0E0D1F1DFC01EF2F7F
:1009F000FF27E295EF70EA5EFE4F3081F801308309
:100A0000E92FFF27EF70FF27EA5EFE4F80811396E4
:100A10008C93FE01E150FF4F245F20838A819B81EC
:100A2000039709F4DCCEE159F10910823196108266
:100A3000319610826F8D81E068278D8D0E94E701CD
:100A400083E090E09B838A83CACEEF92FF921F934C
:100A5000CF93DF93FC01228133812330310509F4E8
:100A600052C0EC0182819381049761F0678D858D7E
:100A70000E94E70160E08C8D0E94E70184E090E035
:100A80009B838A8388A18823E9F010E08FEF9FEF92
:100A90007E01FDE6EF0EF11CF7012081121740F4F4
:100AA000FE01E10FF11D61A50E94C3031F5FF4CF9A
:100AB000883B904F71F0888999890196998B888B32
:100AC00019A218A289A1DF91CF911F91FF90EF90F9
:100AD00008958AA58E838BA58F838CA588878DA585
:100AE00089878D81811107C09E818C81981719F0AB
:100AF0008E818F3F31F78A899B8901969B8B8A8BE8
:100B000081E089A3DECF80E0DECF20911B02260F9B
:100B10003327331F21323105ECF420913F02FC01D1
:100B200090E080E0243069F082E00895A0911B02FB
:100B30002191AC0145505E4FA40FB52FB11D2C93F0
:100B40000196861798F380911B02680F60931B0231
:100B500080E0089581E0089508958FEF9FEF089554
:100B60008FEF9FEF08958091F40190E0919581952A
:100B700091090895CF93DF93CB01EA01642F0E947E
:100B80008505CE01DF91CF910895CF93DF931F921A
:100B9000CDB7DEB7698361E0CE0101960E9485057D
:100BA00081E090E00F90DF91CF91089590E080E098
:100BB00008950C94B316FB0101900020E9F73197DA
:100BC000AF01461B570BDC01ED91FC910280F381D4
:100BD000E02D09948F929F92AF92BF92EF92FF9275
:100BE0000F931F93CF93DF93CDB7DEB7A1970FB6C7
:100BF000F894DEBF0FBECDBF7C01FA01CB0119A274
:100C0000223008F42AE08E010F5D1F4F822E912CB6
:100C1000B12CA12CBF01A50194010E94C814F901B7
:100C2000CA016A300CF5605DD8016E938D01232BEB
:100C3000242B252B79F790E080E0109721F0BD015F
:100C4000C7010E94DB05A1960FB6F894DEBF0FBE68
:100C5000CDBFDF91CF911F910F91FF90EF90BF908B
:100C6000AF909F908F900895695CDECF0C94DB0568
:100C70000E94F9172F923F924F925F926F927F924C
:100C80008F929F92AF92BF92CF92DF92EF92FF929C
:100C90001F93CF93DF93EC016A017B01722EAB01AE
:100CA0009601CB01B6010E940C166EE971E081112C
:100CB00026C046015701E894B7F82FEF3FEF4FE702
:100CC0005FE7C501B4010E940C1681110CC02FEF23
:100CD0003FEF4FE75FE7C501B4010E94381362EAB6
:100CE00071E0181664F02FEF3FEF4FE75FE4C701A4
:100CF000B6010E9407161816B4F466EA71E0CE0138
:100D0000DF91CF911F91FF90EF90DF90CF90BF9038
:100D1000AF909F908F907F906F905F904F903F909B
:100D20002F900C94DB052FEF3FEF4FE75FECC701EF
:100D3000B6010E94381387FDE0CF20E030E0A90122
:100D4000C701B6010E943813312C212C87FF0DC03A
:100D5000E881F9810190F081E02D6DE2CE010995E5
:100D60001C01F7FAF094F7F8F09410E060E070E0FE
:100D700080E09FE3711641F020E030E040E251E472
:100D80000E9466151F5FF6CFA70196010E94FA1414
:100D90002B013C010E94D8154B015C012AE0BC01EB
:100DA000A401CE010E94EA057C01E20CF31C112390
:100DB000E1F1C501B4010E943D139B01AC01C301E7
:100DC000B2010E94F9144B015C01E881F9810190A4
:100DD000F081E02D6EE2CE010995E80EF91E11506A
:100DE00020F120E030E040E251E4C501B4010E946E
:100DF0009E132B013C010E94D8154B01B12CA12C54
:100E00002AE0B501A401CE010E94EA05E80EF91E10
:100E1000C501B4010E943D139B01AC01C301B201A5
:100E20000E94F9144B015C01DACFC701DF91CF9129
:100E30001F91FF90EF90DF90CF90BF90AF909F9069
:100E40008F907F906F905F904F903F902F9008957C
:100E5000CF93DF93EC0160E08E810E94E70161E0B7
:100E60008E810E94E70160E08E810E94E7018BE89D
:100E700091E00197F1F7DF91CF910895CF92DF9242
:100E8000EF92FF920F931F93CF93DF936C017C013E
:100E900087E0E80EF11CD0E0C0E0062F10E0B801BA
:100EA0000C2E02C0759567950A94E2F76170F70100
:100EB00081917F010E94E7012196C430D10579F725
:100EC000C601DF91CF911F910F91FF90EF90DF90BE
:100ED000CF900C942807CF92DF92EF92FF920F935E
:100EE0001F93CF93DF93EC01F62E642F8C810E9429
:100EF000E7018D818F3F19F060E00E94E7010F2D1F
:100F000010E08F8584FF25C06E0187E0C80ED11CDC
:100F1000F12CE12CB8010E2C02C0759567950A944E
:100F2000E2F76170F60181916F010E94E701FFEF26
:100F3000EF1AFF0A88E0E816F10461F7CE01DF91AD
:100F4000CF911F910F91FF90EF90DF90CF900C9475
:100F50002807B80184E0759567958A95E1F7CE0179
:100F60000E943E076F2DCE01DF91CF911F910F910F
:100F7000FF90EF90DF90CF900C943E0740E0682FF9
:100F800083E294E00C946B07CF93DF93613029F0F8
:100F900090913204986090933204609336041092DA
:100FA000370490E49093380480933904805C8093F4
:100FB0003A0461E0809127040E9415028091280480
:100FC0008F3F19F061E00E94150261E080912904D1
:100FD0000E941502C3E2D4E09E0123523440809166
:100FE000320484FD0BC084E090E021962817390775
:100FF00044F461E08E810E941502EECF88E090E01B
:10100000F4CF8BE39DE00197F1F760E08091270436
:101010000E94E70160E0809129040E94E70180912D
:1010200028048F3F19F060E00E94E70180913204AC
:1010300084FD39C063E083E294E00E943E07CBE484
:10104000D6E4CE010197F1F763E083E294E00E94D9
:101050003E072197F1F763E083E294E00E943E07A8
:1010600083E592E00197F1F762E083E294E00E9469
:101070003E078091320480620E94BE0784E0809324
:1010800033048CE00E94BE0781E00E94BE078BE320
:101090009FE10197F1F782E08093340486E0DF91CD
:1010A000CF910C94BE0780620E94BE078BE496E449
:1010B0000197F1F78091320480620E94BE0783E5B8
:1010C00092E00197F1F78091320480620E94BE079E
:1010D000D0CF90913604691710F06FEF690FE62FAB
:1010E000F0E0ED5DFB4F9489890F80680C94BE079A
:1010F00041E00E946B0781E090E00895DF92EF925B
:10110000FF920F931F93CF93DF93EC017B018A0132
:10111000E881F9810680F781E02D0995D82E882392
:10112000D1F0E114F104B1F00115110599F0FE01BF
:10113000E359FF4F80818750F8019081891708F4A7
:101140008083F801408150E0BE01625D7F4FC7019E
:101150000E94FE1719A28D2DDF91CF911F910F9143
:10116000FF90EF90DF9008954F925F926F927F9281
:10117000AF92BF92CF92DF92EF92FF921F93CF93E5
:10118000DF9300D0CDB7DEB77C0190936A028093E5
:10119000690261E0FC01848D0E94150260E0F701A4
:1011A000838D0E94150261E0F701858D0E94150272
:1011B000C7010E947B02F701C18CD28CC114D104FB
:1011C00009F444C0F12CE12C83E0CC0CDD1CEE1CB6
:1011D000FF1C8A95D1F795EAA92E90E0B92E11E06F
:1011E000412C24E2522E24EF622E712C42E050E07A
:1011F000B501CE0101960E94BE1129813A8150E0CD
:1012000040E0C301B2010E94C814CA01B901A7019C
:1012100096010E94C814DA01C9010297A109B10917
:101220008D3F9F4FA105B10510F11F5F62E0A60E33
:10123000B11C1730D9F6223031054105510530F087
:101240002115310581E04807510598F081E00F90A4
:101250000F90DF91CF911F91FF90EF90DF90CF9093
:10126000BF90AF907F906F905F904F900895163031
:1012700069F31092800088E0809381008091810062
:10128000182B10938100309389002093880080915F
:101290006F00826080936F00D9CF0F931F93CF931D
:1012A000FC018281938140E054E264EF70E084307D
:1012B0009105C1F040E052E16AE770E083309105AA
:1012C00089F040E059E06DE370E08230910551F023
:1012D00040E452E46FE070E0019721F440E854E804
:1012E0006EE170E0A481B58186819781009709F451
:1012F00066C08130910509F45EC08230910509F421
:101300005CC0039709F05BC08CE000E012E12AE7C3
:1013100030E090E0401751076207730740F43695BC
:101320002795179507959F5F9630A1F797E021E0E5
:10133000292730E5119709F430E72695282B232B30
:101340002087909591709187CFB7F894809165022E
:10135000811127C0E9EDF0E08491EDEEF0E0949189
:10136000E82FF0E0EE0FFF1FE554FF4FA591B49179
:10137000EC91E92321F461E08AE00E94E70161E059
:101380008AE00E9415028CB580618CBD8CB58064AA
:101390008CBD61E08DE00E94150261E08BE00E944F
:1013A0001502809165028F5F80936502CFBFCF9158
:1013B0001F910F91089584E0A8CF88E0A6CF80E028
:1013C000A4CF4F925F926F927F928F929F92AF9233
:1013D000BF92CF92DF92EF92FF92CF93DF93FC0107
:1013E0002789308D232B09F455C0EC010E946B0234
:1013F0002B013C01E881F981008CF18DE02DCE01BB
:101400000995882309F446C00E946B02AB01BC0118
:1014100044195509660977098F89988DB0E0A0E0D5
:1014200084179507A607B70708F444C00E94621105
:1014300029E030E040E050E00E945F149B01AC01E5
:101440002F5F3F4F4F4F5F4FA4E6B0E00E947E14E6
:101450006B017C010E9446024B015C01C114D10466
:10146000E104F10439F20E944602681979098A09F7
:101470009B09683E73408105910580F3F1E0CF1A26
:10148000D108E108F10828EE820E23E0921EA11C8B
:10149000B11CE4CF81E0DF91CF91FF90EF90DF901E
:1014A000CF90BF90AF909F908F907F906F905F9004
:1014B0004F90089580E0EFCF1F93CF93DF9385ED9A
:1014C0008093BC008091F7019091F801A091F901FF
:1014D000B091FA010796A11DB11D23E0B695A7951D
:1014E000979587952A95D1F72091BC0024FD03C0DC
:1014F00010923F0252C04091F7015091F801609163
:10150000F9017091FA01452B462B472B69F300979F
:10151000A105B10541F02AE22A95F1F700C0019733
:10152000A109B109E1CF8091F601C1E0C093F501B5
:10153000882399F1D091B8001091BA008091BC0035
:101540008A7B8093BC0060E082E10E94E70160E05A
:1015500083E10E94E70110923F02C0934102109282
:10156000400261E082E10E94E70161E083E10E94C4
:10157000E7018091B9008E7F8093B9008091B90016
:101580008D7F8093B90088E48093B80085E48093D0
:10159000BC001093BA00D093B800DF91CF911F9197
:1015A00008951F920F920FB60F9211242F933F931D
:1015B0004F935F936F937F938F939F93AF93BF935B
:1015C000EF93FF938CE792E00E942F01FF91EF9140
:1015D000BF91AF919F918F917F916F915F914F914B
:1015E0003F912F910F900FBE0F901F9018951F9253
:1015F0000F920FB60F9211242F938F939F93EF9317
:10160000FF93E0918C02F0918D028081E091920233
:10161000F091930282FD1BC09081809195028F5FB3
:101620008F7320919602821741F0E0919502F0E0CD
:10163000E458FD4F958F80939502FF91EF919F9114
:101640008F912F910F900FBE0F901F901895808152
:10165000F4CF1F920F920FB60F9211242F933F9346
:101660008F939F93AF93BF9380916C0290916D0283
:10167000A0916E02B0916F0230916B0223E0230FB4
:101680002D3758F50196A11DB11D20936B02809353
:101690006C0290936D02A0936E02B0936F028091E2
:1016A000700290917102A0917202B0917302019642
:1016B000A11DB11D8093700290937102A0937202DC
:1016C000B0937302BF91AF919F918F913F912F91F2
:1016D0000F900FBE0F901F90189526E8230F0296CB
:1016E000A11DB11DD2CF1F920F920FB60F921124E0
:1016F0002F933F934F935F936F937F938F939F931A
:10170000AF93BF93EF93FF93E0910201F091030138
:101710000995FF91EF91BF91AF919F918F917F912B
:101720006F915F914F913F912F910F900FBE0F904E
:101730001F9018951F920F920FB60F9211242F939E
:101740003F934F935F936F937F938F939F93AF9349
:10175000BF93EF93FF93E0910001F0910101099590
:10176000FF91EF91BF91AF919F918F917F916F9179
:101770005F914F913F912F910F900FBE0F901F904F
:1017800018951F920F920FB60F921124CF92DF92ED
:10179000EF92FF920F931F932F933F934F935F937B
:1017A0006F937F938F939F93AF93BF93CF93DF9369
:1017B000EF93FF93C0916902D0916A028A819B8165
:1017C000049709F0E1C02B8D30E0F901E950FF4F9B
:1017D0008491F901ED51FF4F0491F901E153FF4F5D
:1017E0001491112379F081110E94BE01E12FF0E0E4
:1017F000EE0FFF1FEF54FF4FA591B491EC910E2314
:1018000081E009F480E081702E8D982F9227821755
:1018100019F08BA18F5F8BA38AA18917F1F18CA19D
:101820002DE1803508F42BE08CA1820F8CA39AA3C4
:101830008CA1803A08F46DC08EA19FA196958795E2
:101840009FA38EA38BA1853028F08EA19FA19860C5
:101850009FA38EA38CA1805A8CA31BA28DA1882349
:1018600009F486C088A58F5F88A78C3008F451C022
:101870008EA19FA1982F9F73892F8695869588703A
:1018800028E0280F281769F0E82FF0E0EA5EFE4F05
:101890003081931739F08F5FF5CF8CA18C5E8CA3CC
:1018A000C7CF80E090E1899F900111248EA19FA174
:1018B00036E0969587953A95E1F7482F9595879567
:1018C00095958795887098E0980F891749F0E82FCB
:1018D000F0E0EA5EFE4F5081451719F08F5FF5CFBB
:1018E00080E0822BDE01A359BF4F9C91AE01445989
:1018F0005F4F911127C0FA0180839081973018F0D3
:1019000090819434F8F01DA2888999890196998B69
:10191000888BFF91EF91DF91CF91BF91AF919F9114
:101920008F917F916F915F914F913F912F911F9177
:101930000F91FF90EF90DF90CF900F900FBE0F9020
:101940001F9018952C9191E0920F9C932C0F3D2F96
:10195000311DF90181A79C91DA018C91981730F023
:101960001DA281E088A3CE010E947B0218A6D1CFE0
:101970008EA19FA188339B4061F681E08DA318A6BC
:10198000C359DF4F1882C5CF8A819B81039709F61F
:101990008E0100591F4FF801808191E0980F9083CC
:1019A000811113C06E01FEE6CF0ED11CD601EC9161
:1019B000AF56BF4F8C91E81778F0CE010E947B02A2
:1019C0008C899D8901969D8B8C8BD8018C91883058
:1019D00008F49FCF1C929DCFEC0FFD2FF11DEF5807
:1019E000FF4F608170E07E01BFE6EB0EF11CF70156
:1019F000808191E0980F908302C0759567958A95D4
:101A0000E2F761708C8D0E94E701D7018C918630DE
:101A1000E0F21C92F60180818F5F8083D6CF1F9207
:101A20000F920FB60F9211242F933F934F935F9312
:101A30006F937F938F939F93AF93BF93EF93FF9396
:101A40008091B900887F803609F44AC0F0F5883269
:101A500009F4A5C018F5803109F499C0B8F48823B9
:101A600009F4F5C0883009F492C0FF91EF91BF915D
:101A7000AF919F918F917F916F915F914F913F9126
:101A80002F910F900FBE0F901F901895883109F479
:101A900086C0803251F780933E0214C0803409F42E
:101AA0009BC040F48033B9F38833F9F680933E024B
:101AB00085ECAEC0803509F483C0883509F494C044
:101AC000883499F60E945C0AD0CF883909F48AC01C
:101AD00038F5883729F050F4883611F0803729F628
:101AE00083E080933F0210923D0255C0883809F48C
:101AF00079C0803919F0803809F0B7CF80913D0264
:101B0000803208F06FC0E0913D0281E08E0F80933B
:101B10003D028091BB00F0E0E35EFD4F80833BC05F
:101B2000803B39F0D0F4803A09F477C0883A09F064
:101B30009CCF84E080933F0210921C0210921B0203
:101B4000F0E0E0E0099580911B0281110FC081E077
:101B500080931B021092FB0109C0803C09F4A8CFBE
:101B6000883C09F4A5CF883B09F07FCFE0911C02A7
:101B700081E08E0F80931C02F0E0E550FE4F8081E3
:101B80008093BB0090911C0280911B0229C0809120
:101B900064028093BB0085EC8093BC0066CF90917B
:101BA000630280916202981758F5E091630281E028
:101BB0008E0F80936302F0E0EE5BFD4F8081E9CFF2
:101BC000E091630281E08E0F809363028091BB00FD
:101BD000F0E0EE5BFD4F80839091630280916202A2
:101BE0009817C8F285E8D8CFE091630281E08E0FA4
:101BF000809363028091BB00F0E0EE5BFD4F808339
:101C00008091410281115ECF81E08093400284EA9D
:101C10008093BC0010923F0228CF85EC8093BC00DB
:101C200010923F0280913D02803230F4E0913D02FB
:101C3000F0E0E35EFD4F108260913D0270E08DE1C7
:101C400092E0F0E0E0E0099510923D020ECF109294
:101C50003E0238CF1F93CF93DF93CDB7DEB72897DF
:101C60000FB6F894DEBF0FBECDBFECE7F2E01382F3
:101C7000128288EE93E0A0E0B0E084839583A6838F
:101C8000B7838AE291E09183808385EC90E0958729
:101C9000848784EC90E09787868780EC90E0918B36
:101CA000808B81EC90E0938B828B82EC90E0958B23
:101CB000848B86EC90E0978B868B118E128E138E20
:101CC000148EE9E1F3E013821282158214821782E6
:101CD00016828CE391E09183808380E58087118672
:101CE000E3E2F4E01382128286E991E0918380833B
:101CF00082E084831FEF158383E0868384E08783FB
:101D000085E0808786E0818787E082871386148656
:101D100015861686178661E080E10E94C407E3E21B
:101D2000F3E01382128214831287138714861586B8
:101D3000118A108A138A128A158A148A108E178AB9
:101D400086E591E09183808380ED97E0928F818F8B
:101D50008BE0838F8CE0848F8AE0858F168E178EC0
:101D600088E0EEE0F1E0DE01119601900D928A9597
:101D7000E1F788E0FE013196A4E9B3E001900D920D
:101D80008A95E1F728960FB6F894DEBF0FBECDBF57
:101D9000DF91CF911F910895CF93DF93CDB7DEB739
:101DA00065970FB6F894DEBF0FBECDBF789484B5AB
:101DB000826084BD84B5816084BD85B5826085BD47
:101DC00085B5816085BD80916E00816080936E00D5
:101DD00010928100809181008260809381008091C7
:101DE0008100816080938100809180008160809378
:101DF00080008091B10084608093B1008091B00038
:101E000081608093B00080917A00846080937A0032
:101E100080917A00826080937A0080917A0081605C
:101E200080937A0080917A00806880937A00109283
:101E3000C10064E084E10E94C40781E00E94BE0703
:101E40008BE39FE10197F1F760E080E00E94690871
:101E50006AEA71E083E294E00E94360661E080E085
:101E60000E9469086AEB71E083E294E00E94360602
:101E700062E080E00E94690864EC71E083E294E033
:101E80000E94360683E293E00E94B408E0918C023F
:101E9000F0918D0282E08083E0918802F0918902C6
:101EA0001082E0918A02F0918B028FEC8083109275
:101EB0009402E0919002F091910286E08083E0919B
:101EC0008E02F0918F02808180618083E0918E028A
:101ED000F0918F02808188608083E0918E02F09182
:101EE0008F02808180688083E0918E02F0918F0262
:101EF00080818F7D80838E010F5F1F4F2CE02D87A7
:101F0000AE01435F5F4FB80183E293E00E947E0819
:101F100081110E946B020E946B021B012C010E9426
:101F20006B02621973098409950962337105810591
:101F3000910508F06EC185E480937C0080917A0061
:101F4000806480937A0080917A0086FDFCCF809136
:101F5000780090917900E5E0E89FB001E99F700D6D
:101F60001124072E000C880B990B0E943F1320E0D0
:101F700030E040E85AE30E949E132FE23EE64FE134
:101F800050E40E94F91424EE3BE448E35FE30E942E
:101F9000661523EF34E045EB5FE30E9466156B01A5
:101FA0007C018090780290907902A0907A02B090A3
:101FB0007B02A50194010E94071618160CF020C19F
:101FC000C0927802D0927902E0927A02F0927B027B
:101FD0008090740290907502A0907602B090770283
:101FE000A5019401C701B6010E94F91420E030E078
:101FF000A9010E94071618166CF0A7019601C501E9
:10200000B4010E94F91420E030E0A9010E943813C5
:10201000882321F060E08FE00E9469082DEC3CEC01
:102020004CE150E4C701B6010E9438136AEC71E03C
:1020300087FF0DC022E0B701A60183E294E00E9471
:102040003A0660E083E10E9469086BED71E083E28B
:1020500094E00E943606F80101900020E9F7BF01E4
:10206000601B710B90E080E00E943C173C01C12C8A
:10207000D12C7601009751F0FC011082B8010E942A
:102080000718C3010E94BA116B017C0161E08FE067
:102090000E9469082DEC3CEC4CE150E4C701B6010C
:1020A0000E9438136AEC71E087FF0DC022E0B7018F
:1020B000A60183E294E00E943A0661E083E10E9477
:1020C00069086BED71E083E294E00E94360662E0FD
:1020D00086E00E9469088090780290907902A09032
:1020E0007A02B0907B022DEC3CEC4CE150E4C5014F
:1020F000B4010E94381387FF7CC02DEC3CEC4CE10E
:1021000050E4C701B6010E94381387FF72C0A701CF
:102110009601C501B4010E94F9146E877F87888BF0
:10212000998B20E030E0A9010E94071687FF59C073
:10213000A5019401C701B6010E94F9146A8B7B8B3B
:102140008C8B9D8B2DEC3CEC4CE45DE3C501B40124
:102150000E949E132A893B894C895D890E9407163B
:1021600060ED71E018160CF446C022E04E855F85E4
:102170006889798983E294E00E943A066AED71E009
:1021800083E294E00E9436066DED71E08CE792E008
:102190000E943606A701960160917802709179023B
:1021A00080917A0290917B020E94F914AB01BC01EC
:1021B00022E08CE792E00E943A066AED71E08CE73B
:1021C00092E00E94DB0566EE71E08CE792E00E94EF
:1021D000DB056114710409F4A2CEC3010E94B31699
:1021E0009ECEFE85FA8B2F852B8B88898C8B9989C7
:1021F000A8CF69EE71E083E294E00E943606E9CF51
:102200008092740290927502A0927602B092770248
:1022100086CEE0E0F0E0EF2B09F470CE0E941B01C7
:10222000882309F46BCE0E94000068CE8F929F92A3
:10223000AF92BF92CF92DF92EF92FF92CF93DF9354
:10224000EC01688179818A819B8161157105810525
:10225000910521F464E279ED8BE597E02DE133EF10
:1022600041E050E00E945F1449015A019B01AC011A
:10227000A7EAB1E40E947E146B017C01ACEEB4EFDE
:10228000A50194010E948C14C60ED71EE81EF91EEB
:10229000F7FE06C081E0C81AD108E10880E8F80A14
:1022A000C882D982EA82FB82C701B6019F77DF919B
:1022B000CF91FF90EF90DF90CF90BF90AF909F9025
:1022C0008F9008958F929F92AF92BF92CF92DF929C
:1022D000EF92FF92609104017091050180910601D7
:1022E00090910701611571058105910521F464E262
:1022F00079ED8BE597E02DE133EF41E050E00E946E
:102300005F1449015A019B01AC01A7EAB1E40E94A4
:102310007E146B017C01ACEEB4EFA50194010E9428
:102320008C14C60ED71EE81EF91EF7FE06C081E00B
:10233000C81AD108E10880E8F80AC0920401D092D6
:102340000501E0920601F0920701C701B6019F77EF
:10235000FF90EF90DF90CF90BF90AF909F908F90C5
:102360000895609304017093050180930601909392
:1023700007010895662777270C94C711FB01DC013C
:1023800002C005900D9241505040D8F70895B0E03A
:10239000A0E0EDECF1E10C9497145C017B01611578
:1023A000710519F0DB018D939C9385010F5F1F4F21
:1023B000F501D0818D2F90E00E9417136C01892BBD
:1023C000B9F5DD32B9F50F5F1F4FD5011196DC91DC
:1023D000C1E05801F1E0AF1AB10843E050E060E716
:1023E00070E0C5010E942013892B69F5680182E025
:1023F000C80ED11C45E050E06BE670E0C6010E94BB
:102400002013892B21F4680197E0C90ED11CE11437
:10241000F10419F0D701CD92DC9260E070E080E821
:102420009FEFC111FFC060E070E080E89FE7FAC055
:102430005801BBCFDB3229F485010E5F1F4FF50138
:10244000D181C0E0C6CF43E050E068E670E0C5014E
:102450000E942013892BE9F0F80110E000E020E051
:1024600030E0A9015F01B0ED8B2E8D0E89E088155B
:10247000C8F19C2E689491F88C2F8870C2FF16C00A
:10248000811102C00F5F1F4F3196D501DC91C92D1C
:10249000E9CFE114F10429F00E5F1F4FF70111831A
:1024A000008360E070E080EC9FE7BCC0882311F0FF
:1024B00001501109A5E0B0E00E947E149B01AC011F
:1024C000220F331F441F551F280D311D411D511D63
:1024D000283999E93907490799E15907A8F2C660EF
:1024E0009C2ED2CFAEEF8A1206C0C3FD3CC09C2EFC
:1024F000689493F8C9CFDF7DD534A9F580818D32FA
:1025000039F4C061DF011296818162E070E006C09B
:10251000DF018B32C1F3119661E070E080535D0101
:10252000A61AB70A8A30F8F4E0E8CE16ECE0DE0628
:102530005CF4B601660F771F660F771FC60ED71EB5
:10254000CC0CDD1CC80ED11C5D01FFEFAF1ABF0A19
:102550008C9180538A30A8F1C4FF03C0D194C194F8
:10256000D1080C0D1D1DC1FF09C0E114F10431F0AB
:1025700081E0A81AB108D701AD92BC92CA01B90195
:102580000E943D13C370C33009F490584B015C01A5
:1025900020E030E0A9010E943813882309F440C0EC
:1025A000CFE9D0E017FF05C0119501951109C7E8E3
:1025B000D0E06E01B8E1CB1AD10880E2E82EF12C10
:1025C0000FC0D501B1CFFE012591359145915491B0
:1025D0000E191F09C501B4010E949E134B015C0135
:1025E000D501C4010E151F0574F72497F594E794DF
:1025F000CC16DD06A9F78A2F880F8B2F881F8F3FF7
:1026000049F020E030E0A901C501B4010E9438136F
:10261000811106C082E290E090933C0480933B04D9
:10262000C501B401CDB7DEB7ECE00C94B314911141
:102630000C940B14803219F089508550C8F7089516
:10264000FB01DC014150504088F08D9181341CF039
:102650008B350CF4805E659161341CF06B350CF4A5
:10266000605E861B611171F3990B0895881BFCCF86
:102670000E947A1308F481E00895E89409C097FB5A
:102680003EF490958095709561957F4F8F4F9F4F49
:102690009923A9F0F92F96E9BB279395F69587958D
:1026A00077956795B795F111F8CFFAF4BB0F11F450
:1026B00060FF1BC06F5F7F4F8F4F9F4F16C08823F7
:1026C00011F096E911C0772321F09EE8872F762F2D
:1026D00005C0662371F096E8862F70E060E02AF06E
:1026E0009A95660F771F881FDAF7880F969587955A
:1026F00097F90895990F0008550FAA0BE0E8FEEF2F
:1027000016161706E807F907C0F012161306E407B5
:10271000F50798F0621B730B840B950B39F40A26AE
:1027200061F0232B242B252B21F408950A2609F48C
:10273000A140A6958FEF811D811D08950E94B113C0
:102740000C9425140E94171438F00E941E1420F0D7
:10275000952311F00C940E140C94141411240C9461
:1027600059140E94361470F3959FC1F3950F50E0F1
:10277000551F629FF001729FBB27F00DB11D639F33
:10278000AA27F00DB11DAA1F649F6627B00DA11DD9
:10279000661F829F2227B00DA11D621F739FB00D7F
:1027A000A11D621F839FA00D611D221F749F3327EF
:1027B000A00D611D231F849F600D211D822F762F88
:1027C0006A2F11249F5750409AF0F1F088234AF065
:1027D000EE0FFF1FBB1F661F771F881F91505040D1
:1027E000A9F79E3F510580F00C940E140C945914D7
:1027F0005F3FE4F3983ED4F3869577956795B79558
:10280000F795E7959F5FC1F7FE2B880F911D969571
:10281000879597F9089599278827089597F99F67CD
:1028200080E870E060E008959FEF80EC0895002458
:102830000A941616170618060906089500240A9425
:1028400012161306140605060895092E0394000CAB
:1028500011F4882352F0BB0F40F4BF2B11F460FF3A
:1028600004C06F5F7F4F8F4F9F4F089557FD905863
:10287000440F551F59F05F3F71F04795880F97FB44
:10288000991F61F09F3F79F08795089512161306FE
:102890001406551FF2CF4695F1DF08C0161617062D
:1028A0001806991FF1CF8695710561050894089562
:1028B000E894BB2766277727CB0197F90895052E63
:1028C00097FB1EF400940E94761457FD07D00E94D7
:1028D000C81407FC03D04EF40C9476145095409520
:1028E000309521953F4F4F4F5F4F089590958095BC
:1028F000709561957F4F8F4F9F4F08950E94EA1406
:10290000A59F900DB49F900DA49F800D911D112443
:102910000895B7FF0C947E140E947E14821B930BC3
:1029200008952F923F924F925F926F927F928F9273
:102930009F92AF92BF92CF92DF92EF92FF920F934E
:102940001F93CF93DF93CDB7DEB7CA1BDB0B0FB658
:10295000F894DEBF0FBECDBF09942A883988488815
:102960005F846E847D848C849B84AA84B984C884AB
:10297000DF80EE80FD800C811B81AA81B981CE0FA2
:10298000D11D0FB6F894DEBF0FBECDBFED01089587
:10299000A1E21A2EAA1BBB1BFD010DC0AA1FBB1F63
:1029A000EE1FFF1FA217B307E407F50720F0A21BD5
:1029B000B30BE40BF50B661F771F881F991F1A9442
:1029C00069F760957095809590959B01AC01BD016C
:1029D000CF010895A29FB001B39FC001A39F700DC6
:1029E000811D1124911DB29F700D811D1124911D17
:1029F00008955058BB27AA270E9411150C9425143E
:102A00000E94171438F00E941E1420F039F49F3FE2
:102A100019F426F40C9414140EF4E095E7FB0C94CE
:102A20000E14E92F0E94361458F3BA176207730781
:102A30008407950720F079F4A6F50C9458140EF449
:102A4000E0950B2EBA2FA02D0B01B90190010C01BE
:102A5000CA01A0011124FF27591B99F0593F50F4D6
:102A6000503E68F11A16F040A22F232F342F44272E
:102A7000585FF3CF469537952795A795F040539526
:102A8000C9F77EF41F16BA0B620B730B840BBAF0F6
:102A90009150A1F0FF0FBB1F661F771F881FC2F761
:102AA0000EC0BA0F621F731F841F48F48795779575
:102AB0006795B795F7959E3F08F0B0CF9395880F2F
:102AC00008F09927EE0F9795879508950E947A153B
:102AD0000C9425140E941E1458F00E94171440F004
:102AE00029F45F3F29F00C940E1451110C945914E1
:102AF0000C9414140E94361468F39923B1F35523EF
:102B000091F3951B550BBB27AA2762177307840700
:102B100038F09F5F5F4F220F331F441FAA1FA9F396
:102B200035D00E2E3AF0E0E832D091505040E69584
:102B3000001CCAF72BD0FE2F29D0660F771F881FE5
:102B4000BB1F261737074807AB07B0E809F0BB0BD8
:102B5000802DBF01FF2793585F4F3AF09E3F5105EC
:102B600078F00C940E140C9459145F3FE4F3983EE3
:102B7000D4F3869577956795B795F7959F5FC9F7D5
:102B8000880F911D9695879597F90895E1E0660F56
:102B9000771F881FBB1F621773078407BA0720F0CF
:102BA000621B730B840BBA0BEE1F88F7E095089538
:102BB0000E943E1488F09F5798F0B92F9927B7517B
:102BC000B0F0E1F0660F771F881F991F1AF0BA95D1
:102BD000C9F714C0B13091F00E945814B1E00895C3
:102BE0000C945814672F782F8827B85F39F0B93FB5
:102BF000CCF3869577956795B395D9F73EF4909584
:102C00008095709561957F4F8F4F9F4F08950E94DB
:102C10007A1308F48FEF08950E947A13880B990BAA
:102C20000895EE0FFF1F0590F491E02D09940F9386
:102C30001F93CF93DF938230910510F482E090E0F0
:102C4000E0913F04F091400430E020E0B0E0A0E0EB
:102C5000309799F42115310509F44AC0281B390B26
:102C600024303105D8F58A819B816115710589F180
:102C7000FB0193838283FE0111C040815181028157
:102C8000138148175907E0F04817590799F410972E
:102C900061F012960C93129713961C933296CF0103
:102CA000DF91CF911F910F91089500933F041093EE
:102CB0004004F4CF2115310551F04217530738F085
:102CC000A901DB019A01BD01DF01F801C1CFEF01CC
:102CD000F9CF9093400480933F04CDCFFE01E20FE3
:102CE000F31F819391932250310939832883D7CFE1
:102CF00020913D0430913E04232B41F420910A01A0
:102D000030910B0130933E0420933D042091080143
:102D1000309109012115310541F42DB73EB740919D
:102D20000C0150910D01241B350BE0913D04F091F5
:102D30003E04E217F307A0F42E1B3F0B28173907B8
:102D400078F0AC014E5F5F4F2417350748F04E0F07
:102D50005F1F50933E0440933D04819391939FCF16
:102D6000F0E0E0E09CCFCF93DF930097E9F0FC0127
:102D7000329713821282A0913F04B0914004ED017A
:102D800030E020E01097A1F420813181820F931F61
:102D900020913D0430913E042817390709F061C0A5
:102DA000F0933E04E0933D04DF91CF910895EA0152
:102DB000CE17DF07E8F54A815B819E014115510579
:102DC000B1F7E901FB83EA8349915991C40FD51FFB
:102DD000EC17FD0761F4808191810296840F951FA5
:102DE000E90199838883828193819B838A83F0E0C0
:102DF000E0E012968D919C9113970097B9F52D9173
:102E00003C911197CD010296820F931F20913D04B2
:102E100030913E042817390739F6309751F5109252
:102E2000400410923F04B0933E04A0933D04BCCFF5
:102E3000D383C28340815181840F951FC817D9075E
:102E400061F44E5F5F4F88819981480F591F51830C
:102E500040838A819B81938382832115310509F008
:102E6000B0CFF0934004E0933F049ECFFD01DC011E
:102E7000C0CF13821282D7CFB0E0A0E0E2E4F7E146
:102E80000C9493148C01009751F4CB010E941716F7
:102E90008C01C801CDB7DEB7E0E10C94AF14FC01A2
:102EA000E60FF71F9C0122503109E217F30708F4DF
:102EB0009DC0D901CD91DC911197C617D70798F025
:102EC000C530D10530F3CE0104978617970708F374
:102ED000C61BD70B2297C193D1936D937C93CF01DF
:102EE0000E94B316D6CF5B01AC1ABD0A4C018C0E02
:102EF0009D1EA0913F04B0914004512C412CF12C17
:102F0000E12C109731F580913D0490913E04881595
:102F1000990509F05CC04616570608F058C0809124
:102F2000080190910901009741F48DB79EB7409137
:102F30000C0150910D01841B950BE817F90708F05F
:102F400055C0F0933E04E0933D04F9017183608322
:102F5000A0CF8D919C91119712966C901297139619
:102F60007C901397A815B90559F56C0142E0C40E81
:102F7000D11CCA14DB0420F1AC014A195B09DA0147
:102F80001296159780F06282738251834083D90133
:102F90006D937C93E114F10471F0D7011396FC93C7
:102FA000EE93129776CF22968C0F9D1FF901918395
:102FB0008083F301EFCFF0934004E0933F0469CFA7
:102FC0004816590608F42C017D01D3019ACFCB0194
:102FD0000E9417167C01009749F0AE01B8010E94CB
:102FE000FE17C8010E94B316870153CF10E000E01E
:102FF00050CF81E090E0F8940C940E18FB01DC01B6
:1030000002C001900D9241505040D8F70895FB0145
:10301000DC0101900D920020E1F70895F894FFCFB4
:1030200077027702010000000000410480002A2A94
:103030002A2A2A2A382C0D0E131516191A1C232594
:1030400026292A2C3234000000005101B100DE0094
:103050009E010F01ED00010100000000F902F502E0
:10306000F1024D09DD02080304030003C002AF02B0
:103070009502000000007802D905B40825057E08F5
:10308000DE037902B40379034A038103E1091A03D9
:10309000440341033E033B033403470331032E0340
:1030A0002B032803240320031C031A031603120313
:1030B0000E03000000007808B100D6050D036E6114
:1030C0006E00696E66006F766600536F7572636599
:1030D0002063757272656E742000436F6E73756D38
:1030E0006572200054686566740020204D415800C8
:1030F0006E6F6E65202020202000204100546865FE
:103100006674203D20000D0A002D2D2D2D2D202030
:04311000202020005B
:00000001FF
